:061CFF00322E302E3000F1
:031C6F00019A00D7
:0616C7008B2E8A2F8930F2
:1016CD00E4781CF6EF24FE601714601614601624DF
:1016DD0014602B24F2605514603424FE705D80027A
:1016ED008000E48024781C7606E6FF7E00A830ACEE
:1016FD002FAD2E7BFF7A1C79FF120B1B803DAB2E7D
:10170D00AA2FA9307401120B87781CF6802DAB2EF1
:10171D00AA2FA9307440120B87AB2EAA2FA9309097
:10172D000001E4120B99781C7602800FAB2EAA2FC4
:0F173D00A9307404120B87781C7601781CE6FF24
:01174C00227A
:101B6B00900001120B5AFE120B41FDEE781CF6EDA4
:101B7B0008F6781C08E616187001161486064E70C7
:0C1B8B00F1AB31AA32A933120B877F01A5
:011B9700222B
:101BC400120B4114600304700B900001120B5A13A2
:101BD4009202800AAB31AA32A93374FF8007AB3179
:0B1BE400AA32A933E4120B877F012214
:101ADE00120B41FF781C700476018002A607781C59
:101AEE00E614700978937601121AA98004E4781C22
:0F1AFE00F6781CE6AB31AA32A933120B877F01B1
:011B0D0022B5
:101C3B008B2E8A2F8930E47893F6121CC8AB2EAA10
:0A1C4B002FA930E4120B877F01225D
:100003008B2E8A2F8930121918AB2EAA2FA9309064
:0D0013000001E4120B99E4120B877F02221A
:10159D00120B41781CF6900001120B5A781DF69033
:1015AD000003120B5AFE900002120B5AFDEE781E2C
:1015BD00F6ED08F6900004120B5A70089000051213
:1015CD000B5A6009781EE64480F608E6F6781DE6AB
:1015DD00FF5401600C18E654016004D2978002C2DA
:1015ED0097EF5402600D781CE654026004D295808A
:1015FD0002C295781DE65480600F18E6540260040F
:10160D00C2948005121918D294A295E43325E0FFF7
:10161D00A297E4334F781CF6209404E64480F678C4
:0D162D001CE6AB31AA32A933120B877F01F6
:01163A00228D
:0617D2008B2E8A2F8930E6
:1017D800AB31AA32A933E4120B87AB2EAA2FA9305A
:1017E800900003120B5A60028013900002120B5AE9
:1017F800FFFD7C00D3949774809480400675FB02AB
:101808007F0122D3ED9479EC64809480400675FBC7
:10181800037F0122EFFD7C00D3945A7480948040AA
:101828000675FB047F0122D3ED9402EC648094805A
:10183800500675FBF07F0122EFFD7C007E017F6E74
:07184800120BBB8FFB7F01B7
:01184F002276
:061A74008B2E8A2F893041
:101A7A000530E5307002052F14F9120B41781CF677
:101A8A00E6700276FF781CE6FFAB2EAA2FA9301269
:0E1A9A001C19AB31AA32A933E4120B877F016D
:011AA800221B
:101BEF00120B41781CF6E6FF5403047898F6EF5475
:101BFF000460047F0180027F00788BA607AB31AAB7
:091C0F0032A933E4120B877F01B6
:011C180022A9
:06142C008B2E8A2F89308F
:10143200AB310533E533AA327002053214F9E412F6
:101442000B87781E7601AB2E0530E530AA2F70028D
:10145200052F14F9120B4118F6781DE616700302D7
:1014620014EAAB2E0530E530AA2F7002052F14F9CD
:10147200120B4118F6E6FF543F781FF670027640D1
:10148200EF54806034781FE6FFAB31AA32A93312E1
:101492001B0E781FE62407FFE433FEEF7803CEC36A
:1014A20013CE13D8F9781FF6E6FF2533F533E4356A
:1014B20032F53218EF26F680A0781FE6FFAB2EAA8F
:1014C2002FA930121C19781FE62407FFE433FEEF20
:1014D2007803CEC313CE13D8F9781FF62530F53032
:0C14E200E4352FF52F02145B781EE6FFA6
:0114EE0022DB
:1019FF00120B417881F6900002120B5AFE900001F3
:101A0F00120B5AFDEE7896F6ED08F6900004120BC5
:101A1F005AFE900003120B5AFDEE7891F6ED08F680
:0D1A2F00AB31AA32A933E4120B877F0122EC
:060046008B348A35893677
:10004C008B3A8A3B893CE47880F67899F685373D83
:10005C0085383E85393F74022539F539E43538F554
:10006C0038E408F6781DF608F6042536F536E4353E
:10007C0035F535AB340536E536AA35700205351441
:10008C00F9120B41788CF6788CE670030204DAAB2B
:10009C00340536E536AA357002053514F9120B41D4
:1000AC007882F6E6FF5402700302039C781DE6701A
:1000BC00030201807896E6FC08E6FD7894A6040815
:1000CC00A605EF5411640170267882E6FF7D831239
:1000DC00133A7899EFF66402703B789408E6161898
:1000EC0086067001164E602D789AE660DC80267DBF
:1000FC00837F0E12133A7899EFF66402701378949A
:10010C0008E6161886067001164E6005789AE660A9
:10011C00DEE4781DF67899E6640160030204DA786F
:10012C0083E6FFAB370539E539AA38700205381478
:10013C00F9EF120B8708E6FFAB370539E539AA381A
:10014C007002053814F9EF120B8708E6FFAB370580
:10015C0039E539AA387002053814F9EF120B870803
:10016C00E6FFAB370539E539AA387002053814F9C2
:10017C00EF120B877882E6FF541070030202BEABBD
:10018C0034AA35A936120B417887F6900001120B70
:10019C005A7888F6900002120B5A7889F690000370
:1001AC00120B5A788AF674042536F536E43535F593
:1001BC00357891E6FC08E6FD18A60408A605EF5470
:1001CC0001603D7896E6FE08E6FF7894A60608A640
:1001DC00077882E6FFE4FD12133A7899EFF67E0079
:1001EC0064027013789408E6161886047001164C95
:1001FC006005789AE660DAEF64014E60030204DA77
:10020C007896E6FE08E6FF7894A60608A60778829C
:10021C00E6FF7D8312133A7899EFF67E0064027044
:10022C0013789408E6161886047001164C6005784D
:10023C009AE660DAEF64014E703C7983E7788D566C
:10024C00788766701E09E7788E5678886670140970
:10025C00E7788F56788966700A09E7789056788A1D
:10026C00666013789108E6161886067001164E60C3
:10027C0005789AE6608A7983E7788D567887667078
:10028C001E09E7788E56788866701409E7788F56C1
:10029C00788966700A09E7789056788A66600678DD
:1002AC0099E64410F67899E664017003020395020E
:1002BC0004DA7896E6FE08E6FF7894A60608A60708
:1002CC007882E65401603E781DE66003020395785F
:1002DC0082E6FFE4FD12133A7899EFF67E00640291
:1002EC007013789408E6161886047001164C600595
:1002FC00789AE660DAEF64014E60030204DA781D46
:10030C0076010203957882E6FF7D8312133A789981
:10031C00EFF67E0064027013789408E616188604D3
:10032C007001164C6005789AE660DAEF64014E6055
:10033C00030204DA7883E6FFAB370539E539AA38CE
:10034C007002053814F9EF120B8708E6FFAB37057E
:10035C0039E539AA387002053814F9EF120B870801
:10036C00E6FFAB370539E539AA387002053814F9C0
:10037C00EF120B8708E6FFAB370539E539AA387061
:10038C0002053814F9EF120B87E4781EF60204CC40
:10039C00781DE670030204387896E6FE08E6FF78CE
:1003AC0094A60608A6077D837F0E12133A7899EF60
:1003BC00F67E0064027013789408E61618860470B2
:1003CC0001164C6005789AE660DCEF64014E600320
:1003DC000204DA7883E6FFAB370539E539AA3870C1
:1003EC0002053814F9EF120B8708E6FFAB37053915
:1003FC00E539AA387002053814F9EF120B8708E6B4
:10040C00FFAB370539E539AA387002053814F9EF16
:10041C00120B8708E6FFAB370539E539AA387002AD
:10042C00053814F9EF120B87E4781DF6AB34AA35B6
:10043C00A936120B417883F6900001120B5A78847E
:10044C00F6900002120B5A7885F6900003120B5AA4
:10045C007886F674042536F536E43535F53578822C
:10046C00E65420601D08E6788DF67884E6788EF6E2
:10047C007885E6788FF67886E67890F67899760126
:10048C00803E7896E6FE08E6FF7894A60608A60756
:10049C007882E6FF7D8312133A7899EFF67E00643A
:1004AC00027013789408E6161886047001164C60D6
:1004BC0005789AE660DAEF64014E7012781E7601C8
:1004CC00788006789AE67006788C16020093788C01
:1004DC00E66031AB340536E536AA357002053514C5
:1004EC00F9120B417882F6E6FF54026007EF5410C4
:1004FC00600D800074042536F536E43535F5357815
:10050C008C1680CA7899E6640160030205E9781DAF
:10051C00E670030205B47896E6FE08E6FF7894A62A
:10052C000608A6077D837F0E12133A7899EFF67EA4
:10053C000064027013789408E6161886047001168D
:10054C004C6005789AE660DCEF64014E60030205AE
:10055C00E97883E6FFAB370539E539AA387002052F
:10056C003814F9EF120B8708E6FFAB370539E5397C
:10057C00AA387002053814F9EF120B8708E6FFABA6
:10058C00370539E539AA387002053814F9EF120B22
:10059C008708E6FFAB370539E539AA38700205380C
:1005AC0014F9EF120B878035781EE660307896E6EA
:1005BC00FE08E6FF7894A60608A607E4FD7F0E1257
:1005CC00133A7899EFF664027013789408E61618CB
:1005DC0086067001164E6005789AE660DE7880E635
:1005EC00AB3DAA3EA93F120B877899E6AB3DAA3EDC
:0D05FC00A93F900001120B99C3E53999FF4A
:0106090022CE
:101C9F00E4781CF6853137853238853339120046A2
:041CAF00781CEFF6B8
:011CB300220E
:060D59008B348A35893657
:100D5F00E47880F67899F685373A85383B85393CC3
:100D6F0074032539F539E43538F538E408F60425E8
:100D7F0036F536E43535F535AB34FAA93690000142
:100D8F00120B5A120B41FF788CF674022536F5368A
:100D9F00E43535F535EF7003020F5DAB340536E5FD
:100DAF0036AA357002053514F9120B417882F6E632
:100DBF00FF54027003020EB6EF5401603D7896E6C1
:100DCF00FE08E6FF7894A60608A6077882E6FFE4F9
:100DDF00FD12133A7899EFF67E006402701378943F
:100DEF0008E6161886047001164C6005789AE660BE
:100DFF00DAEF64014E6003020F5D788CE616700324
:100E0F00020F5DE670097882E654016002760E7873
:100E1F0096E6FE08E6FF7894A60608A6077882E60F
:100E2F00FF7D8312133A7899EFF67E0064027013F8
:100E3F00789408E6161886047001164C6005789AA7
:100E4F00E660DAEF64014E6003020F5D7883E6FF20
:100E5F00AB370539E539AA387002053814F9EF12A6
:100E6F000B8708E6FFAB370539E539AA387002055D
:100E7F003814F9EF120B8708E6FFAB370539E53960
:100E8F00AA387002053814F9EF120B8708E6FFAB8A
:100E9F00370539E539AA387002053814F9EF120B06
:100EAF0087788006020E09788CE6166071AB34AA3B
:100EBF0035A936120B417883F6900001120B5A7840
:100ECF0084F6900002120B5A7885F6900003120BED
:100EDF005A7886F674042536F536E43535F53578C7
:100EEF0096E6FE08E6FF7894A60608A6077882E63F
:100EFF00FF7D8312133A7899EFF67E006402701328
:100F0F00789408E6161886047001164C6005789AD6
:100F1F00E660DAEF64014E70357880068089789646
:100F2F00E6FE08E6FF7894A60608A607E4FD7F0E06
:100F3F0012133A7899EFF664027013789408E61654
:100F4F001886067001164E6005789AE660DE788086
:100F5F00E6AB3AAA3BA93C120B87AB3AAA3BA93C9A
:100F6F00900001E4120B997899E6900002120B9908
:050F7F00C3E53999FFF4
:010F8400224A
:06174D008B2E8A2F89306B
:101753007893E6147018853137853238853339AB81
:101763002EAA2FA930120D59781CA6078021AB3160
:10177300AA32A933E4120B87AB31AA32A933900002
:1017830001120B99900002E4120B99781C7603ABBB
:101793002EAA2FA930900003120B5A540260067828
:1017A3001CE6F68025900002120B5A900001120BE2
:1017B3005A75F004A42404FFE435F0FEEF7810C357
:0E17C30033CE33CED8F9781C46F6781CE6FFFC
:0117D10022F5
:101A3C00900001120B5A7883F6900002120B5A7820
:101A4C0084F6900003120B5A7885F6900004120B62
:101A5C005A7886F67D83E4FF12133AAB37AA38A97D
:081A6C0039E4120B877F01220F
:101B98007893E614701285313785323885333912D7
:101BA8001A3C781CA607800FAB31AA32A93374FF00
:0B1BB800120B87781C7601781CE6FFFA
:011BC30022FF
:0C0F850078A4E6FF789E667003021171EC
:100F91007E0074002FF9EE3401752801F529892AA4
:100FA100789DE62400F9EE3402752B01F52C892D8C
:100FB10078A4744026F6AB28AA29A92A120B41FF6E
:100FC100AB2B052DE52DAA2C7002052C14F9EF127F
:100FD1000B87AB28052AE52AAA297002052914F9ED
:100FE100120B41120D2D104200106B0110800210E6
:100FF1009503112604101805102D06113A0810A1A9
:101001000910B60A10C21010D61110EA1210FE1300
:1010110011121D00001152852B31852C32852D3383
:10102100AB28AA29A92A121C9F02114C852B3185B4
:101031002C32852D33AB28AA29A92A12174D02116A
:101041004CAB28AA29A92A120B41FFAB2BE52D2471
:1010510001F9E4352CFA1216C7781BEFF6AB2BAA6F
:101061002CA92D120B8706021164852B31852C3298
:10107100852D33AB28AA29A92A121BC402114C853C
:101081002B31852C32852D33AB28AA29A92A121A96
:10109100DE02114CAB2BAA2CA92D121C3B02114CC8
:1010A100852B31852C32852D33AB28AA29A92A120B
:1010B1001B6B02114CAB2BAA2CA92D1200030211A0
:1010C1004C852B31852C32852D33AB28AA29A92AB1
:1010D10012159D8076852B31852C32852D33AB28D9
:1010E100AA29A92A1217D28062852B31852C328533
:1010F1002D33AB28AA29A92A121A74804E852B31C7
:10110100852C32852D33AB28AA29A92A121BEF8001
:101111003A852B31852C32852D33AB28AA29A92A72
:1011210012142C8026852B31852C32852D33AB284A
:10113100AA29A92A1219FF8012852B31852C328503
:101141002D33AB28AA29A92A121B98781BA6078040
:1011510012AB2BAA2CA92D90FFFF74FF120B9978CB
:101161001B7601781BE60479A0F7789D744026F67A
:01117100225B
:101CDB0075A15575A1AAE5B954F84406F5B9E4F513
:021CEB00A12234
:101C5500EF4E601505A105A105A105A105A105A1E9
:0A1C650005A1EF1F70EA1E80E722C0
:101C8800AD07AC06ED4C600E7FE87E03121C55EDE7
:071C98001D70F11C80EE221B
:1011720012011002EF020140280D040200010102D7
:1011820003010902620003010080FA09040000025F
:10119200FF00000407050202400000070583024029
:1011A2000000080B02020202010509040200020A01
:1011B200000000070501024000000705810240000F
:1011C20000090403000102020100052400100105C8
:1011D20024010001042402020524060302070584F7
:1011E200030800FF040309040803410052004D00F4
:1011F20024034400410050004C0069006E006B0063
:10120200200043004D005300490053002D004400CC
:10121200410050001A03350056002D0053005000C3
:1012220049002D00310032003300340035001A032A
:1012320043004D005300490053002D00440041007B
:1012420050002000760032001E034400410050008E
:101252004C0069006E006B002D0043004400430007
:10126200450078007400050F2800020710020000F4
:1012720000001C100500DF60DDD88945C74C9CD2F8
:10128200659D9E648A9F00000306AA0020000A0052
:10129200000000000306AA00080002000000A000EF
:1012A2001400030057494E5553420000000000004D
:1012B200000000008400040007002A0044006500CA
:1012C200760069006300650049006E0074006500E5
:1012D2007200660061006300650047005500490026
:1012E20044007300000050007B00430044004200B1
:1012F200330042003500410044002D003200390025
:10130200330042002D0034003600360033002D0039
:1013120041004100330036002D0031004100410000
:101322004500340036003400360033003700370001
:0813320036007D000000000000
:101C720001B00002A5000007A900E1000000000871
:051C820003150038000D
:10196C00C2EAE4F5E275D18053D1FB53E2BF75EDC9
:10197C000075EC0053EAF375DC0275EF0075EE4070
:10198C0043EAC053EAEF75D21275E50175E40075B0
:10199C00E70275E60043EB4853EBEE75D41275D6AF
:1019AC001AF5E343E22943D10175D8FF75E107D25B
:0219BC00EA221D
:0300430002060AA8
:0D060A00C0E0C0F0C083C082C0D075D00831
:1006170020D903020A18E5D9543F70030209EA14E6
:10062700604D24E1700302098A14603324FE601DC3
:1006370024F36049242E6003020A1620DE03020A0F
:1006470016789E744026F6E6F5E4020A1678B07628
:100657000075D700E5D654FC4402F5D6020A167594
:10066700D300C201E5D254FC4402F5D2020A162097
:10067700DE03020A16AFDB1219BE020A1685DB215A
:10068700E5216408600302095C900006E078A7F69C
:10069700A3E0600276FF752100900001E078A8F6DC
:1006A700900000E0546024E070030208C024E0706A
:1006B700030208E82440600302090F78A8E6B40B98
:1006C7000040030208BE9006D4F828287302089F4A
:1006D7000207E40208BE02081F0208BE0207AB02B7
:1006E70006F50208BE0207B50207D10209129000FB
:1006F70003E024FE602014602C24F47003020799A1
:10070700240E60030207A87512FF75131175147282
:100717007521120209127512FF751311751484756C
:100727002162020912900002E014601F14602B146A
:10073700603714603F14604B240570657512FF75B0
:1007470013117514E67521040209127512FF75134A
:10075700117514EA7521080209127512FF75131134
:100767007514F27521240209127512FF751312759B
:10077700141680097512FF75131275143075211A36
:100787000209127512FF75131275144A75211E029C
:1007970009127512FF75131275146875212802095D
:1007A7001202090F900002E078A7F6020912789B5F
:1007B700E6900000F078A7E6C39401748094805017
:1007C70003020912752101020912900002E0789BC9
:1007D700F6700302091278B176010209129000003F
:1007E700E0541F6402702E900004E024FE601D2474
:1007F70081600E14701CE5D454BC4402F5D4020980
:1008070012E5D254BC4402F5D202091253D4730242
:10081700091202090F02090F900000E0541FFD7C26
:10082700007020900003E0FE900002E0FBEB640103
:100837004E700D90118B9330E50302091202090FD8
:1008470002090FED64024C704D900003E0FE90002A
:1008570002E0FDED4E703D900005E0FE900004E0E3
:10086700FDEDFFEE702CEF24FE6012248160191459
:100877007020E5D454BF4403F5D4020912E5D454DB
:100887007F440CF5D4020912E5D254BF4403F5D2D4
:1008970080798074807280707512007513007514EA
:1008A700A578A7E6FFC3940274809480400575215C
:1008B7000280588F218054804F900000E0541F64BD
:1008C70001704878A8E624E0604124FE603D04708A
:1008D7000E7512007513007514A9752107802C80F9
:1008E70027900000E0541F702278A8E624E07016D5
:1008F700900004E0640770137512FF7513127514E6
:10090700907521AA800580007521FFAF21EF60480F
:10091700F4604578A7E6D395214002A62178A7E69B
:10092700FFC394407480948040047F4080008F21EF
:100937007E0078007C007D01AB12AA13A914120B6C
:100947001BC378A7E69521F6E5212514F514E435B0
:1009570013F51380037521FFAF217E00EFF4700AB2
:1009670078A876FF75DCCF020A16D3EF9440EE64C1
:1009770080948050058521DD800375DD0075DCC01E
:10098700020A1678A8E624FB604624E56004241AC8
:10099700704978A7E6FFC394407480948040047F31
:1009A7004080008F217E0078007C007D01AB12AA79
:1009B70013A914120B1BC378A7E69521F6E5212589
:1009C70014F514E43513F5138521DD63DC40803F0E
:1009D700E5E3548078A746F5E3800375DD0075DC11
:1009E70002802C85DB2178A8E66420701F30DE1C8E
:1009F700AFDBFE087C00FD7B017A007900120B1B40
:100A07007B007A0079A912185075DD0063DC80C27B
:100A1700D930D81675DC0275D21075D41275E3007B
:100A2700C2DAC2D978B07600C2D830DA09C2DAE5BC
:090A3700DA30E205800375D8FFF6
:0B0A4000D0D0D082D083D0F0D0E032C4
:1014EF00E4F527121CDB7F057E00121C8812196C95
:1014FF00121B3D5392EF4393105392DF439320D22D
:10150F00AFE4F5D3F5D578B1F6789EF678A4F678F2
:10151F009DF6789FF678B0F6C202F510F511789B1C
:10152F00E660FB120F8578B0E66401601C789FE6D9
:10153F00FF789D66601378B0760178A0E6F5D78FB7
:10154F00E653D6FC18744026F6300209C291E4F532
:10155F0010F511801F0511E51170020510AF107EF7
:10156F0000EF64107002D291EF64F04E7006F51028
:10157F00F511C291E5B930E3AAE4F5E275D1807FA8
:0E158F000AFE121C88AA16A917120D53809589
:10185000E4F525F524F523F522900003120B5AF543
:1018600022900002120B5AF523900001120B5AF538
:1018700024120B41F525C2ACE47F08FEFDFCAB252C
:10188000AA24A923A822120C10E42FFFEE3436FE5E
:10189000ED346EFDEC3401FCE47B10FAF9F8120C27
:1018A0009BAB25AA24A923A822120C9BEFF404F5D4
:0318B0008DD2AC2A
:0118B3002212
:101AA90053927F439380C2975392DF439320D295F9
:101AB9005392BF5393BFC2945392EF439310D2B43E
:101AC9005396EF439710D2B25396FB43970475FC94
:051AD9000875FB182256
:101CC800C2945392DF5393DF53927F53937FC2B4EE
:031CD800C2B22273
:1019180075341EE4F535F536F5377D34FF12133A84
:10192800E4F5347D347F0812133A75341275372381
:101938007D347F0112133A75340C7535EDE4F536B4
:101948007537E07D347F0512133A753407E4F535B1
:101958007536FA7537057D347F0D12133A7D347F5D
:041968000E02133A1E
:1000260030FBFDF5F922D297139295C297D8F722A5
:0C003600C297A29513D297D8F7C2972268
:101C19008AA075FA60EFC394084008FFE312002612
:101C29000980F2EF600BF8E330FBFD75FA00120052
:021C39002C225B
:101B0E008AA0D295439220C2B2EFC39408400F75BB
:101B1E00FA20F5F904FF30FBFDE5F9F380EBEF60F9
:0F1B2E000DF875FA00120036F3D2B25392DF228F
:10133A00EDF9EF53E00F2330D002D2E543E0817597
:10134A00FA6012002630FBFD75FA00D2954392200E
:10135A00C2B27804120036C40353E007CFBF014279
:10136A0020E141D2970000C2977D00D2B25392DFAA
:10137A0075FA60E712002630D0010D09E71200263F
:10138A0030D0010D09E712002630D0010D09E7120D
:10139A00002630D0010DED1330FBFD75FA00929551
:1013AA008051805E75FA20F5F97D0030FBFDE5F984
:1013BA00F5F930D0010DF70930FBFDE5F9F5F93003
:1013CA00D0010DF70930FBFDE5F9F5F930D0010D33
:1013DA00F70930FBFDE5F930D0010DF775FA00D2B7
:1013EA0097E400C297A295336D30E0027F08D2B22B
:1013FA005392DF7881087801D29700C295C297D8B4
:10140A00F722BF0202800BBF020280067F107822F9
:10141A0080027801D2970000C297D8F8D2B25392CC
:02142A00DF22BF
:101B3D00E4F519F518F51AC200C20143960343974F
:101B4D0003C2CDC2CC438780E589540F4420F5896B
:0E1B5D0043C9A0758DF3D28E759850D2AC227C
:1019BE008F22900040C3E518951914C39F402875D7
:1019CE00A003A819E0F2A308DFFA8819200009A8DD
:1019DE0018E2F5990518D200C3E518951914C394A9
:1019EE0040400453D2F322E5D254F34408F5D222F8
:0119FE0022C6
:101CED008F26784005A290008015A2E608A5DFFB9F
:021CFD002222A1
:101CB400E51A600FFF121CED851AD3E4F51A53D20E
:041CC400FCD201222B
:030023000218B40C
:1018B400C0E0C0F0C083C082C0D075D00830982189
:1018C4007440251AF8A699051AD3E51A9440748031
:1018D40094804003751A00C29820012D121CB48014
:1018E40028309925E5186519600D758303851882DC
:1018F400E0F59905188002C200C3E518951914C3D0
:101904009440400353D2F3C299D0D0D082D083D034
:04191400F0D0E032FD
:0300000002163BAA
:0C163B00787FE4F6D8FD7581B1021682BC
:100A4B00E709F608DFFA8046E709F208DFFA803E8D
:100A5B0088828C83E709F0A3DFFA8032E309F6087A
:100A6B00DFFA8078E309F208DFFA807088828C83E2
:100A7B00E309F0A3DFFA806489828A83E0A3F60896
:100A8B00DFFA805889828A83E0A3F208DFFA804C70
:100A9B0080D280FA80C680D4806980F28033801047
:100AAB0080A680EA809A80A880DA80E280CA8033B0
:100ABB0089828A83ECFAE493A3C8C582C8CCC58328
:100ACB00CCF0A3C8C582C8CCC583CCDFE9DEE780F8
:100ADB000D89828A83E493A3F608DFF9ECFAA9F077
:100AEB00EDFB2289828A83ECFAE0A3C8C582C8CCCD
:100AFB00C583CCF0A3C8C582C8CCC583CCDFEADEE6
:100B0B00E880DB89828A83E493A3F208DFF980CC47
:100B1B0088F0EF60010E4E60C388F0ED2402B40440
:100B2B000050B9F582EB2402B4040050AF232345E7
:060B3B008223900A9B7367
:100B4100BB010689828A83E0225002E722BBFE02B2
:090B5100E32289828A83E49322E5
:100B5A00BB010CE58229F582E5833AF583E0225050
:100B6A0006E92582F8E622BBFE06E92582F8E2229A
:0D0B7A00E58229F582E5833AF583E49322B4
:100B8700BB010689828A83F0225002F722BBFE014D
:020B9700F32247
:100B9900F8BB010DE58229F582E5833AF583E8F092
:100BA900225006E92582C8F622BBFE05E92582C83E
:020BB900F22226
:100BBB00BC000BBE0029EF8DF084FFADF022E4CC1E
:100BCB00F875F008EF2FFFEE33FEEC33FCEE9DECE7
:100BDB00984005FCEE9DFE0FD5F0E9E4CEFD22ED2D
:100BEB00F8F5F0EE8420D21CFEADF075F008EF2F77
:100BFB00FFED33FD4007985006D5F0F222C398FD68
:050C0B000FD5F0EA2204
:100C1000E88FF0A4CC8BF0A42CFCE98EF0A42CFC83
:100C20008AF0EDA42CFCEA8EF0A4CDA8F08BF0A401
:100C30002DCC3825F0FDE98FF0A42CCD35F0FCEB60
:100C40008EF0A4FEA9F0EB8FF0A4CFC5F02ECD3925
:0F0C5000FEE43CFCEAA42DCE35F0FDE43CFC2292
:100C5F0075F008758200EF2FFFEE33FECD33CDCC4C
:100C6F0033CCC58233C5829BED9AEC99E5829840CF
:100C7F000CF582EE9BFEED9AFDEC99FC0FD5F0D6AC
:100C8F00E4CEFBE4CDFAE4CCF9A88222B800C1B9D6
:100C9F000059BA002DEC8BF084CFCECDFCE5F0CB14
:100CAF00F97818EF2FFFEE33FEED33FDEC33FCEB4D
:100CBF0033FB10D703994004EB99FB0FD8E5E4F908
:100CCF00FA227818EF2FFFEE33FEED33FDEC33FCF5
:100CDF00C933C910D7059BE99A4007EC9BFCE99AE9
:100CEF00F90FD8E0E4C9FAE4CCFB2275F010EF2F2E
:100CFF00FFEE33FEED33FDCC33CCC833C810D7072E
:100D0F009BEC9AE899400AED9BFDEC9AFCE899F868
:0E0D1F000FD5F0DAE4CDFBE4CCFAE4C8F922FB
:100D2D00D083D082F8E4937012740193700DA3A355
:100D3D0093F8740193F5828883E473740293686069
:060D4D00EFA3A3A380DF69
:060D53008A838982E4732B
:101647000214EFE493A3F8E493A34003F68001F2B6
:1016570008DFF48029E493A3F85407240CC8C333A4
:10166700C4540F4420C8834004F456800146F6DF73
:10167700E4800B0102040810204080901C6FE47E78
:10168700019360BCA3FF543F30E509541FFEE49368
:10169700A360010ECF54C025E060A840B8E493A32F
:1016A700FAE493A3F8E493A3C8C582C8CAC583CA5A
:1016B700F0A3C8C582C8CAC583CADFE9DEE780BE12
:011C8700005C
:00000001FF
