:061BF500322E302E3000FC
:031B3600019C000F
:06163F008B2E8A2F89307A
:10164500E4781CF6EF24FE60171460161460162467
:1016550014602B24F2605514603424FE705D800202
:101665008000E48024781C7606E6FF7E00A830AC76
:101675002FAD2E7BFF7A1B79F5120B1B803DAB2E10
:10168500AA2FA9307401120B87781CF6802DAB2E7A
:10169500AA2FA9307440120B87AB2EAA2FA9309020
:1016A5000001E4120B99781C7602800FAB2EAA2F4D
:0F16B500A9307404120B87781C7601781CE6FFAD
:0116C4002203
:101A3000900001120B5AFE120B41FDEE781CF6EDE0
:101A400008F6781C08E616187001161486064E7003
:0C1A5000F1AB31AA32A933120B877F01E1
:011A5C002267
:101A8900120B4114600304700B900001120B5A13DE
:101A99009202800AAB31AA32A93374FF8007AB31B5
:0B1AA900AA32A933E4120B877F012250
:1019A300120B41FF781C700476018002A607781C95
:1019B300E6147009789576011219D38004E4781C33
:0F19C300F6781CE6AB31AA32A933120B877F01ED
:0119D20022F2
:100026008B2E8A2F8930E47895F6121BBEAB2EAA4A
:0A0036002FA930E4120B877F01228E
:100003008B2E8A2F8930121812AB2EAA2FA930906B
:0D0013000001E4120B99E4120B877F02221A
:10151500120B41781CF6900001120B5A781DF690BB
:101525000003120B5AFE900002120B5AFDEE781EB4
:10153500F6ED08F6900004120B5A7008900005129B
:101545000B5A6009781EE64480F608E6F6781DE633
:10155500FF5401600C18E654016004D2978002C262
:1015650097EF5402600D781CE654026004D2958012
:1015750002C295781DE65480600F18E65402600497
:10158500C2948005121812D294A295E43325E0FF87
:10159500A297E4334F781CF6209404E64480F6784D
:0D15A5001CE6AB31AA32A933120B877F017F
:0115B2002216
:101B6700120B417892F6E4F67881F6AB31AA32A9E6
:071B770033120B877F0122EE
:06196E008B2E8A2F893048
:101974000530E5307002052F14F9120B41781CF67E
:10198400E6700276FF781CE6FFAB2EAA2FA9301270
:0E1994001B4FAB31AA32A933E4120B877F013F
:0119A2002222
:101AB400120B41781CF6E6FF540304789AF6EF54AF
:101AC4000460047F0180027F00788CA607AB31AAF2
:091AD40032A933E4120B877F01F3
:011ADD0022E6
:0612E5008B2E8A2F8930D8
:1012EB00AB310533E533AA327002053214F9E4123F
:1012FB000B87781E7601AB2E0530E530AA2F7002D6
:10130B00052F14F9120B4118F6781DE6167003021F
:10131B0013A3AB2E0530E530AA2F7002052F14F95D
:10132B00120B4118F6E6FF543F781FF67002764019
:10133B00EF54806034781FE6FFAB31AA32A9331229
:10134B001ADE781FE62407FFE433FEEF7803CEC3E3
:10135B0013CE13D8F9781FF6E6FF2533F533E435B2
:10136B0032F53218EF26F680A0781FE6FFAB2EAAD7
:10137B002FA930121B4F781FE62407FFE433FEEF33
:10138B007803CEC313CE13D8F9781FF62530F5307A
:0C139B00E4352FF52F021314781EE6FF36
:0113A7002223
:1018F900120B417882F6900002120B5AFE900001F9
:10190900120B5AFDEE7898F6ED08F6900004120BCA
:101919005AFE900003120B5AFDEE7893F6ED08F685
:0D192900AB31AA32A933E4120B877F0122F3
:060046008B348A35893677
:10004C008B3A8A3B893CE47880F6789BF685373D81
:10005C0085383E85393F74022539F539E43538F554
:10006C0038E408F6781DF608F6042536F536E4353E
:10007C0035F535AB340536E536AA35700205351441
:10008C00F9120B41788DF6788DE670030204DAAB29
:10009C00340536E536AA357002053514F9120B41D4
:1000AC007883F6E6FF5402700302039C781DE67019
:1000BC00030201807898E6FC08E6FD7896A6040811
:1000CC00A605EF5411640170267883E6FF7D841237
:1000DC0013A8789BEFF66402703B789608E6161826
:1000EC0086067001164E602D789CE660DC80267DBD
:1000FC00847F0E1213A8789BEFF664027013789627
:10010C0008E6161886067001164E6005789CE660A7
:10011C00DEE4781DF6789BE6640160030204DA786D
:10012C0084E6FFAB370539E539AA38700205381477
:10013C00F9EF120B8708E6FFAB370539E539AA381A
:10014C007002053814F9EF120B8708E6FFAB370580
:10015C0039E539AA387002053814F9EF120B870803
:10016C00E6FFAB370539E539AA387002053814F9C2
:10017C00EF120B877883E6FF541070030202BEABBC
:10018C0034AA35A936120B417888F6900001120B6F
:10019C005A7889F6900002120B5A788AF69000036E
:1001AC00120B5A788BF674042536F536E43535F592
:1001BC00357893E6FC08E6FD18A60408A605EF546E
:1001CC0001603D7898E6FE08E6FF7896A60608A63C
:1001DC00077883E6FFE4FD1213A8789BEFF67E0008
:1001EC0064027013789608E6161886047001164C93
:1001FC006005789CE660DAEF64014E60030204DA75
:10020C007898E6FE08E6FF7896A60608A607788397
:10021C00E6FF7D841213A8789BEFF67E00640270D3
:10022C0013789608E6161886047001164C6005784B
:10023C009CE660DAEF64014E703C7984E7788E5668
:10024C00788866701E09E7788F567889667014096D
:10025C00E7789056788A66700A09E7789156788B19
:10026C00666013789308E6161886067001164E60C1
:10027C0005789CE6608A7984E7788E567888667073
:10028C001E09E7788F56788966701409E7789056BE
:10029C00788A66700A09E7789156788B66600678DA
:1002AC009BE64410F6789BE664017003020395020A
:1002BC0004DA7898E6FE08E6FF7896A60608A60704
:1002CC007883E65401603E781DE66003020395785E
:1002DC0083E6FFE4FD1213A8789BEFF67E00640220
:1002EC007013789608E6161886047001164C600593
:1002FC00789CE660DAEF64014E60030204DA781D44
:10030C0076010203957883E6FF7D841213A8789B0F
:10031C00EFF67E0064027013789608E616188604D1
:10032C007001164C6005789CE660DAEF64014E6053
:10033C00030204DA7884E6FFAB370539E539AA38CD
:10034C007002053814F9EF120B8708E6FFAB37057E
:10035C0039E539AA387002053814F9EF120B870801
:10036C00E6FFAB370539E539AA387002053814F9C0
:10037C00EF120B8708E6FFAB370539E539AA387061
:10038C0002053814F9EF120B87E4781EF60204CC40
:10039C00781DE670030204387898E6FE08E6FF78CC
:1003AC0096A60608A6077D847F0E1213A8789BEFED
:1003BC00F67E0064027013789608E61618860470B0
:1003CC0001164C6005789CE660DCEF64014E60031E
:1003DC000204DA7884E6FFAB370539E539AA3870C0
:1003EC0002053814F9EF120B8708E6FFAB37053915
:1003FC00E539AA387002053814F9EF120B8708E6B4
:10040C00FFAB370539E539AA387002053814F9EF16
:10041C00120B8708E6FFAB370539E539AA387002AD
:10042C00053814F9EF120B87E4781DF6AB34AA35B6
:10043C00A936120B417884F6900001120B5A78857C
:10044C00F6900002120B5A7886F6900003120B5AA3
:10045C007887F674042536F536E43535F53578832A
:10046C00E65420601D08E6788EF67885E6788FF6DF
:10047C007886E67890F67887E67891F6789B760120
:10048C00803E7898E6FE08E6FF7896A60608A60752
:10049C007883E6FF7D841213A8789BEFF67E0064C8
:1004AC00027013789608E6161886047001164C60D4
:1004BC0005789CE660DAEF64014E7012781E7601C6
:1004CC00788006789CE67006788D16020093788DFD
:1004DC00E66031AB340536E536AA357002053514C5
:1004EC00F9120B417883F6E6FF54026007EF5410C3
:1004FC00600D800074042536F536E43535F5357815
:10050C008D1680CA789BE6640160030205E9781DAC
:10051C00E670030205B47898E6FE08E6FF7896A626
:10052C000608A6077D847F0E1213A8789BEFF67E33
:10053C000064027013789608E6161886047001168B
:10054C004C6005789CE660DCEF64014E60030205AC
:10055C00E97884E6FFAB370539E539AA387002052E
:10056C003814F9EF120B8708E6FFAB370539E5397C
:10057C00AA387002053814F9EF120B8708E6FFABA6
:10058C00370539E539AA387002053814F9EF120B22
:10059C008708E6FFAB370539E539AA38700205380C
:1005AC0014F9EF120B878035781EE660307898E6E8
:1005BC00FE08E6FF7896A60608A607E4FD7F0E1255
:1005CC0013A8789BEFF664027013789608E6161859
:1005DC0086067001164E6005789CE660DE7880E633
:1005EC00AB3DAA3EA93F120B87789BE6AB3DAA3EDA
:0D05FC00A93F900001120B99C3E53999FF4A
:0106090022CE
:101B9500E4781CF6853137853238853339120046AD
:041BA500781CEFF6C3
:011BA9002219
:060D04008B348A358936AC
:100D0A00E47880F6789BF685373A85383B85393C16
:100D1A0074032539F539E43538F538E408F604253D
:100D2A0036F536E43535F535AB34FAA93690000197
:100D3A00120B5A120B41FF788DF674022536F536DE
:100D4A00E43535F535EF7003020F08AB340536E5A7
:100D5A0036AA357002053514F9120B417883F6E686
:100D6A00FF54027003020E61EF5401603D7898E669
:100D7A00FE08E6FF7896A60608A6077883E6FFE44B
:100D8A00FD1213A8789BEFF67E0064027013789622
:100D9A0008E6161886047001164C6005789CE66011
:100DAA00DAEF64014E6003020F08788DE6167003CD
:100DBA00020F08E670097883E654016002760E781D
:100DCA0098E6FE08E6FF7896A60608A6077883E660
:100DDA00FF7D841213A8789BEFF67E0064027013DD
:100DEA00789608E6161886047001164C6005789CF9
:100DFA00E660DAEF64014E6003020F087884E6FFCA
:100E0A00AB370539E539AA387002053814F9EF12FB
:100E1A000B8708E6FFAB370539E539AA38700205B2
:100E2A003814F9EF120B8708E6FFAB370539E539B5
:100E3A00AA387002053814F9EF120B8708E6FFABDF
:100E4A00370539E539AA387002053814F9EF120B5B
:100E5A0087788006020DB4788DE6166071AB34AAE5
:100E6A0035A936120B417884F6900001120B5A7894
:100E7A0085F6900002120B5A7886F6900003120B40
:100E8A005A7887F674042536F536E43535F535781B
:100E9A0098E6FE08E6FF7896A60608A6077883E68F
:100EAA00FF7D841213A8789BEFF67E00640270130C
:100EBA00789608E6161886047001164C6005789C28
:100ECA00E660DAEF64014E7035788006808978989A
:100EDA00E6FE08E6FF7896A60608A607E4FD7F0E5A
:100EEA001213A8789BEFF664027013789608E61638
:100EFA001886067001164E6005789CE660DE7880DA
:100F0A00E6AB3AAA3BA93C120B87AB3AAA3BA93CEF
:100F1A00900001E4120B99789BE6900002120B995B
:050F2A00C3E53999FF49
:010F2F00229F
:0616C5008B2E8A2F8930F4
:1016CB007895E6147018853137853238853339AB08
:1016DB002EAA2FA930120D04781CA6078021AB313E
:1016EB00AA32A933E4120B87AB31AA32A93390008B
:1016FB0001120B99900002E4120B99781C7603AB44
:10170B002EAA2FA930900003120B5A5402600678B0
:10171B001CE6F68025900002120B5A900001120B6A
:10172B005A75F004A42404FFE435F0FEEF7810C3DF
:0E173B0033CE33CED8F9781C46F6781CE6FF84
:01174900227D
:10193600900001120B5A7884F6900002120B5A7826
:1019460085F6900003120B5A7886F6900004120B67
:101956005A7887F67D84E4FF1213A8AB37AA38A914
:0819660039E4120B877F012216
:101A5D007895E61470128531378532388533391211
:101A6D001936781CA607800FAB31AA32A93374FF43
:0B1A7D00120B87781C7601781CE6FF36
:011A8800223B
:0C0F300078A6E6FF78A066700302111C92
:100F3C007E0074002FF9EE3401752801F529892AF9
:100F4C00789FE62400F9EE3402752B01F52C892DDF
:100F5C0078A6744026F6AB28AA29A92A120B41FFC1
:100F6C00AB2B052DE52DAA2C7002052C14F9EF12D4
:100F7C000B87AB28052AE52AAA297002052914F942
:100F8C00120B41120CD80FED00101601102B021091
:100F9C00400310D1040FC3050FD80610E508104C00
:100FAC000910610A106D1010811110951210A913FF
:100FBC0010BD1D000010FD852B31852C32852D3385
:100FCC00AB28AA29A92A121B950210F7852B31856B
:100FDC002C32852D33AB28AA29A92A1216C502104A
:100FEC00F7AB28AA29A92A120B41FFAB2BE52D241C
:100FFC0001F9E4352CFA12163F781BEFF6AB2BAA4D
:10100C002CA92D120B870602110F852B31852C3242
:10101C00852D33AB28AA29A92A121A890210F78523
:10102C002B31852C32852D33AB28AA29A92A1219EC
:10103C00A30210F7AB2BAA2CA92D1200260210F735
:10104C00852B31852C32852D33AB28AA29A92A1260
:10105C001A300210F7AB2BAA2CA92D120003021088
:10106C00F7852B31852C32852D33AB28AA29A92A5B
:10107C001215158076852B31852C32852D33AB28B6
:10108C00AA29A92A121B678062852B31852C3285EF
:10109C002D33AB28AA29A92A12196E804E852B3123
:1010AC00852C32852D33AB28AA29A92A121AB48093
:1010BC003A852B31852C32852D33AB28AA29A92AC8
:1010CC001212E58026852B31852C32852D33AB28E9
:1010DC00AA29A92A1218F98012852B31852C328560
:1010EC002D33AB28AA29A92A121A5D781BA60780D2
:1010FC0012AB2BAA2CA92D90FFFF74FF120B997821
:10110C001B7601781BE60479A2F7789F744026F6CB
:01111C0022B0
:101BD10075A15575A1AAE5B954F84406F5B9E4F51E
:021BE100A1223F
:101B0200EF4E601505A105A105A105A105A105A13D
:0A1B120005A1EF1F70EA1E80E72214
:101B7E00AD07AC06ED4C600E7FE87E03121B02ED46
:071B8E001D70F11C80EE2226
:10111D0012011002EF020140280D0402000101022C
:10112D0003010902620003010080FA0904000002B4
:10113D00FF0000040705020240000007058302407E
:10114D000000080B02020202010509040200020A56
:10115D000000000705010240000007058102400064
:10116D00000904030001020201000524001001051D
:10117D00240100010424020205240603020705844C
:10118D00030800FF040309040803410052004D0049
:10119D0024034400410050004C0069006E006B00B8
:1011AD00200043004D005300490053002D00440022
:1011BD00410050001A033500560030002D00490043
:1011CD004F002D00310032003300340035001A037A
:1011DD0043004D005300490053002D0044004100D1
:1011ED0050002000760032001E03440041005000E4
:1011FD004C0069006E006B002D004300440043005D
:10120D00450078007400050F280002071002000049
:10121D0000001C100500DF60DDD88945C74C9CD24D
:10122D00659D9E648A9F00000306AA0020000A00A7
:10123D00000000000306AA00080002000000A00044
:10124D001400030057494E555342000000000000A2
:10125D00000000008400040007002A00440065001F
:10126D00760069006300650049006E00740065003A
:10127D00720066006100630065004700550049007B
:10128D0044007300000050007B0043004400420006
:10129D00330042003500410044002D00320039007A
:1012AD00330042002D0034003600360033002D008F
:1012BD0041004100330036002D0031004100410056
:1012CD004500340036003400360033003700370057
:0812DD0036007D000000000056
:101B390001B20002A7000007AB00E10000000008A5
:051B4900031500380047
:10186600C2EAE4F5E275D18053D1FB53E2BF75EDD0
:101876000075EC0053EAF375DC0275EF0075EE4077
:1018860043EAC053EAEF75D21275E50175E40075B7
:10189600E70275E60043EB4853EBEE75D41275D6B6
:1018A6001AF5E343E22943D10175D8FF75E107D262
:0218B600EA2224
:0300430002060AA8
:0D060A00C0E0C0F0C083C082C0D075D00831
:1006170020D903020A18E5D9543F70030209EA14E6
:10062700604D24E1700302098A14603324FE601DC3
:1006370024F36049242E6003020A1620DE03020A0F
:100647001678A0744026F6E6F5E4020A1678B27624
:100657000075D700E5D654FC4402F5D6020A167594
:10066700D300C201E5D254FC4402F5D2020A162097
:10067700DE03020A16AFDB1218B8020A1685DB2161
:10068700E5216408600302095C900006E078A9F69A
:10069700A3E0600276FF752100900001E078AAF6DA
:1006A700900000E0546024E070030208C024E0706A
:1006B700030208E82440600302090F78AAE6B40B96
:1006C7000040030208BE9006D4F828287302089F4A
:1006D7000207E40208BE02081F0208BE0207AB02B7
:1006E70006F50208BE0207B50207D10209129000FB
:1006F70003E024FE602014602C24F47003020799A1
:10070700240E60030207A87512FF75131175141DD7
:100717007521120209127512FF75131175142F75C1
:100727002162020912900002E014601F14602B146A
:10073700603714603F14604B240570657512FF75B0
:1007470013117514917521040209127512FF75139F
:10075700117514957521080209127512FF75131189
:1007670075149D7521240209127512FF75131175F1
:1007770014C180097512FF7513117514DB75211AE1
:100787000209127512FF7513117514F575211E02F2
:1007970009127512FF7513127514137521280209B2
:1007A7001202090F900002E078A9F6020912789D5B
:1007B700E6900000F078A9E6C39401748094805015
:1007C70003020912752101020912900002E0789DC7
:1007D700F6700302091278B376010209129000003D
:1007E700E0541F6402702E900004E024FE601D2474
:1007F70081600E14701CE5D454BC4402F5D4020980
:1008070012E5D254BC4402F5D202091253D4730242
:10081700091202090F02090F900000E0541FFD7C26
:10082700007020900003E0FE900002E0FBEB640103
:100837004E700D9011369330E50302091202090F2D
:1008470002090FED64024C704D900003E0FE90002A
:1008570002E0FDED4E703D900005E0FE900004E0E3
:10086700FDEDFFEE702CEF24FE6012248160191459
:100877007020E5D454BF4403F5D4020912E5D454DB
:100887007F440CF5D4020912E5D254BF4403F5D2D4
:1008970080798074807280707512007513007514EA
:1008A700A778A9E6FFC39402748094804005752158
:1008B7000280588F218054804F900000E0541F64BD
:1008C70001704878AAE624E0604124FE603D047088
:1008D7000E7512007513007514AB752107802C80F7
:1008E70027900000E0541F702278AAE624E07016D3
:1008F700900004E0640770137512FF7513127514E6
:100907003B7521AA800580007521FFAF21EF604864
:10091700F4604578A9E6D395214002A62178A9E697
:10092700FFC394407480948040047F4080008F21EF
:100937007E0078007C007D01AB12AA13A914120B6C
:100947001BC378A9E69521F6E5212514F514E435AE
:1009570013F51380037521FFAF217E00EFF4700AB2
:1009670078AA76FF75DCCF020A16D3EF9440EE64BF
:1009770080948050058521DD800375DD0075DCC01E
:10098700020A1678AAE624FB604624E56004241AC6
:10099700704978A9E6FFC394407480948040047F2F
:1009A7004080008F217E0078007C007D01AB12AA79
:1009B70013A914120B1BC378A9E69521F6E5212587
:1009C70014F514E43513F5138521DD63DC40803F0E
:1009D700E5E3548078A946F5E3800375DD0075DC0F
:1009E70002802C85DB2178AAE66420701F30DE1C8C
:1009F700AFDBFE087C00FD7B017A007900120B1B40
:100A07007B007A0079AB12174A75DD0063DC80C280
:100A1700D930D81675DC0275D21075D41275E3007B
:100A2700C2DAC2D978B27600C2D830DA09C2DAE5BA
:090A3700DA30E205800375D8FFF6
:0B0A4000D0D0D082D083D0F0D0E032C4
:10146700E4F527121BD17F057E00121B7E1218663A
:10147700121A025392EF4393105392DF439320D2F1
:10148700AFE4F5D3F5D578B3F678A0F678A6F67875
:101497009FF678A1F678B2F6C202F510F511789D9D
:1014A700E660FB120F3078B2E66401601C78A1E6B3
:1014B700FF789F66601378B2760178A2E6F5D78F3A
:1014C700E653D6FC18744026F6300209C291E4F5BB
:1014D70010F511801F0511E51170020510AF107E80
:1014E70000EF64107002D291EF64F04E7006F510B1
:1014F700F511C291E5B930E3AAE4F5E275D1807F31
:0E1507000AFE121B7EAA16A917120CFE809572
:10174A00E4F525F524F523F522900003120B5AF54A
:10175A0022900002120B5AF523900001120B5AF53F
:10176A0024120B41F525C2ACE47F08FEFDFCAB2533
:10177A00AA24A923A822120BBBE42FFFEE3436FEBB
:10178A00ED346EFDEC3401FCE47B10FAF9F8120C2E
:10179A0046AB25AA24A923A822120C46EFF404F585
:0317AA008DD2AC31
:0117AD002219
:1019D30053927F439380D2975392DF439320D295C0
:1019E3005392BF5393BFC2945392EF439310D2B415
:0F19F3005396EF439710D2B25396FB43970422BB
:101BBE00C2945392DF5393DF53927F53937FC2B4F9
:031BCE00C2B2227E
:1018120075341EE4F535F536F5377D34FF1213A81D
:10182200E4F5347D347F081213A87534127537231A
:101832007D347F011213A875340C7535EDE4F5364D
:101842007537E07D347F051213A8753407E4F5354A
:101852007536FA7537057D347F0D1213A87D347FF6
:041862000E0213A8B7
:101B1C007808D297139295C297D8F7D29722780863
:0A1B2C00C297A29513D297D8F722B2
:101B4F008AA0EFC39409400904FFE3121B1C09800C
:081B5F00F1EFF8E3121B1E2256
:101ADE00D295439220C2B28AA0EFC3940940090462
:101AEE00FF121B2AF30980F1EFF8121B2CF3D2B26E
:041AFE005392DF22FE
:1013A800EDF9EF53E00F2330D002D2E543E081128C
:1013B8001B1CD295439220C2B27804121B2CC40382
:1013C80053E007CFBF017820E136C2970000D297DB
:1013D8007D00D2B25392DFE730D0010D121B1C09F9
:1013E800E730D0010D121B1C09E730D0010D121B8C
:1013F8001C09E730D0010D121B1CED1392958038A3
:101408007D00121B2A30D0010DF709121B2A30D09B
:10141800010DF709121B2A30D0010DF709121B2AFA
:1014280030D0010DF7C297E4A29533D2976D30E022
:10143800027F08D2B25392DFC2970000D29722BF30
:101448000202800BBF020280067F10782280027899
:0F14580001C2970000D297D8F8D2B25392DF2288
:101A0200E4F519F518F51AC200C20143960343978B
:101A120003C2CDC2CC438780E589540F4420F589A7
:0E1A220043C9A0758DF3D28E759850D2AC22B8
:1018B8008F22900040C3E518951914C39F402875DE
:1018C800A003A819E0F2A308DFFA8819200009A8E4
:1018D80018E2F5990518D200C3E518951914C394B0
:1018E80040400453D2F322E5D254F34408F5D222FF
:0118F80022CD
:101BE3008F26784005A290008015A2E608A5DFFBAA
:021BF3002222AC
:101BAA00E51A600FFF121BE3851AD3E4F51A53D224
:041BBA00FCD2012236
:030023000217AE13
:1017AE00C0E0C0F0C083C082C0D075D00830982190
:1017BE007440251AF8A699051AD3E51A9440748038
:1017CE0094804003751A00C29820012D121BAA8026
:1017DE0028309925E5186519600D758303851882E3
:1017EE00E0F59905188002C200C3E518951914C3D7
:1017FE009440400353D2F3C299D0D0D082D083D03C
:04180E00F0D0E03204
:030000000215B333
:0C15B300787FE4F6D8FD7581B30215FACC
:100A4B00E709F608DFFA8046E709F208DFFA803E8D
:100A5B0088828C83E709F0A3DFFA8032E309F6087A
:100A6B00DFFA8078E309F208DFFA807088828C83E2
:100A7B00E309F0A3DFFA806489828A83E0A3F60896
:100A8B00DFFA805889828A83E0A3F208DFFA804C70
:100A9B0080D280FA80C680D4806980F28033801047
:100AAB0080A680EA809A80A880DA80E280CA8033B0
:100ABB0089828A83ECFAE493A3C8C582C8CCC58328
:100ACB00CCF0A3C8C582C8CCC583CCDFE9DEE780F8
:100ADB000D89828A83E493A3F608DFF9ECFAA9F077
:100AEB00EDFB2289828A83ECFAE0A3C8C582C8CCCD
:100AFB00C583CCF0A3C8C582C8CCC583CCDFEADEE6
:100B0B00E880DB89828A83E493A3F208DFF980CC47
:100B1B0088F0EF60010E4E60C388F0ED2402B40440
:100B2B000050B9F582EB2402B4040050AF232345E7
:060B3B008223900A9B7367
:100B4100BB010689828A83E0225002E722BBFE02B2
:090B5100E32289828A83E49322E5
:100B5A00BB010CE58229F582E5833AF583E0225050
:100B6A0006E92582F8E622BBFE06E92582F8E2229A
:0D0B7A00E58229F582E5833AF583E49322B4
:100B8700BB010689828A83F0225002F722BBFE014D
:020B9700F32247
:100B9900F8BB010DE58229F582E5833AF583E8F092
:100BA900225006E92582C8F622BBFE05E92582C83E
:020BB900F22226
:100BBB00E88FF0A4CC8BF0A42CFCE98EF0A42CFCD9
:100BCB008AF0EDA42CFCEA8EF0A4CDA8F08BF0A457
:100BDB002DCC3825F0FDE98FF0A42CCD35F0FCEBB6
:100BEB008EF0A4FEA9F0EB8FF0A4CFC5F02ECD397B
:0F0BFB00FEE43CFCEAA42DCE35F0FDE43CFC22E8
:100C0A0075F008758200EF2FFFEE33FECD33CDCCA1
:100C1A0033CCC58233C5829BED9AEC99E582984024
:100C2A000CF582EE9BFEED9AFDEC99FC0FD5F0D601
:100C3A00E4CEFBE4CDFAE4CCF9A88222B800C1B92B
:100C4A000059BA002DEC8BF084CFCECDFCE5F0CB69
:100C5A00F97818EF2FFFEE33FEED33FDEC33FCEBA2
:100C6A0033FB10D703994004EB99FB0FD8E5E4F95D
:100C7A00FA227818EF2FFFEE33FEED33FDEC33FC4A
:100C8A00C933C910D7059BE99A4007EC9BFCE99A3E
:100C9A00F90FD8E0E4C9FAE4CCFB2275F010EF2F83
:100CAA00FFEE33FEED33FDCC33CCC833C810D70783
:100CBA009BEC9AE899400AED9BFDEC9AFCE899F8BE
:0E0CCA000FD5F0DAE4CDFBE4CCFAE4C8F92251
:100CD800D083D082F8E4937012740193700DA3A3AB
:100CE80093F8740193F5828883E4737402936860BF
:060CF800EFA3A3A380DFBF
:060CFE008A838982E47381
:1015BF00021467E493A3F8E493A34003F68001F2C7
:1015CF0008DFF48029E493A3F85407240CC8C3332D
:1015DF00C4540F4420C8834004F456800146F6DFFC
:1015EF00E4800B0102040810204080901B36E47E3B
:1015FF00019360BCA3FF543F30E509541FFEE493F1
:10160F00A360010ECF54C025E060A840B8E493A3B7
:10161F00FAE493A3F8E493A3C8C582C8CAC583CAE2
:10162F00F0A3C8C582C8CAC583CADFE9DEE780BE9A
:011B4E000096
:00000001FF
